{
  "contractName": "NFTBitwiseShop",
  "abi": [
    {
      "inputs": [],
      "payable": false,
      "stateMutability": "nonpayable",
      "type": "constructor"
    },
    {
      "anonymous": false,
      "inputs": [
        {
          "indexed": false,
          "internalType": "uint256",
          "name": "id",
          "type": "uint256"
        },
        {
          "indexed": false,
          "internalType": "string",
          "name": "name",
          "type": "string"
        },
        {
          "indexed": true,
          "internalType": "address",
          "name": "initialOwner",
          "type": "address"
        },
        {
          "indexed": false,
          "internalType": "uint256",
          "name": "price",
          "type": "uint256"
        },
        {
          "indexed": false,
          "internalType": "string",
          "name": "image",
          "type": "string"
        },
        {
          "indexed": false,
          "internalType": "enum NFTBitwiseShop.Op",
          "name": "op",
          "type": "uint8"
        },
        {
          "indexed": false,
          "internalType": "bytes1",
          "name": "byteA",
          "type": "bytes1"
        },
        {
          "indexed": false,
          "internalType": "bytes1",
          "name": "byteB",
          "type": "bytes1"
        }
      ],
      "name": "NFTCreated",
      "type": "event"
    },
    {
      "anonymous": false,
      "inputs": [
        {
          "indexed": false,
          "internalType": "uint256",
          "name": "id",
          "type": "uint256"
        },
        {
          "indexed": true,
          "internalType": "address",
          "name": "buyer",
          "type": "address"
        },
        {
          "indexed": false,
          "internalType": "uint256",
          "name": "price",
          "type": "uint256"
        },
        {
          "indexed": false,
          "internalType": "enum NFTBitwiseShop.Op",
          "name": "op",
          "type": "uint8"
        },
        {
          "indexed": false,
          "internalType": "bytes1",
          "name": "byteA",
          "type": "bytes1"
        },
        {
          "indexed": false,
          "internalType": "bytes1",
          "name": "byteB",
          "type": "bytes1"
        }
      ],
      "name": "NFTPurchased",
      "type": "event"
    },
    {
      "constant": true,
      "inputs": [],
      "name": "nftCount",
      "outputs": [
        {
          "internalType": "uint256",
          "name": "",
          "type": "uint256"
        }
      ],
      "payable": false,
      "stateMutability": "view",
      "type": "function"
    },
    {
      "constant": true,
      "inputs": [
        {
          "internalType": "uint256",
          "name": "",
          "type": "uint256"
        }
      ],
      "name": "nfts",
      "outputs": [
        {
          "internalType": "string",
          "name": "name",
          "type": "string"
        },
        {
          "internalType": "address",
          "name": "owner",
          "type": "address"
        },
        {
          "internalType": "uint256",
          "name": "price",
          "type": "uint256"
        },
        {
          "internalType": "string",
          "name": "image",
          "type": "string"
        },
        {
          "internalType": "string",
          "name": "artist",
          "type": "string"
        },
        {
          "internalType": "bytes1",
          "name": "byteA",
          "type": "bytes1"
        },
        {
          "internalType": "bytes1",
          "name": "byteB",
          "type": "bytes1"
        },
        {
          "internalType": "enum NFTBitwiseShop.Op",
          "name": "op",
          "type": "uint8"
        }
      ],
      "payable": false,
      "stateMutability": "view",
      "type": "function"
    },
    {
      "constant": true,
      "inputs": [],
      "name": "owner",
      "outputs": [
        {
          "internalType": "address",
          "name": "",
          "type": "address"
        }
      ],
      "payable": false,
      "stateMutability": "view",
      "type": "function"
    },
    {
      "constant": false,
      "inputs": [
        {
          "internalType": "string",
          "name": "_name",
          "type": "string"
        },
        {
          "internalType": "uint256",
          "name": "_price",
          "type": "uint256"
        },
        {
          "internalType": "string",
          "name": "_image",
          "type": "string"
        },
        {
          "internalType": "string",
          "name": "_artist",
          "type": "string"
        },
        {
          "internalType": "address",
          "name": "_initialOwner",
          "type": "address"
        }
      ],
      "name": "createNFT",
      "outputs": [],
      "payable": false,
      "stateMutability": "nonpayable",
      "type": "function"
    },
    {
      "constant": false,
      "inputs": [
        {
          "internalType": "uint256",
          "name": "_id",
          "type": "uint256"
        },
        {
          "internalType": "uint256",
          "name": "_result",
          "type": "uint256"
        }
      ],
      "name": "purchaseNFT",
      "outputs": [],
      "payable": true,
      "stateMutability": "payable",
      "type": "function"
    }
  ],
  "bytecode": "0x6080604052600060025534801561001557600080fd5b50336000806101000a81548173ffffffffffffffffffffffffffffffffffffffff021916908373ffffffffffffffffffffffffffffffffffffffff160217905550611603806100656000396000f3fe60806040526004361061004a5760003560e01c80630af2c6ca1461004f578063265aa6211461007a57806360f85625146102eb5780638da5cb5b1461050b578063ad4451a314610562575b600080fd5b34801561005b57600080fd5b5061006461059a565b6040518082815260200191505060405180910390f35b34801561008657600080fd5b506100b36004803603602081101561009d57600080fd5b81019080803590602001909291905050506105a0565b60405180806020018973ffffffffffffffffffffffffffffffffffffffff1673ffffffffffffffffffffffffffffffffffffffff1681526020018881526020018060200180602001877effffffffffffffffffffffffffffffffffffffffffffffffffffffffffffff19167effffffffffffffffffffffffffffffffffffffffffffffffffffffffffffff19168152602001867effffffffffffffffffffffffffffffffffffffffffffffffffffffffffffff19167effffffffffffffffffffffffffffffffffffffffffffffffffffffffffffff1916815260200185600181111561019b57fe5b60ff16815260200184810384528c818151815260200191508051906020019080838360005b838110156101db5780820151818401526020810190506101c0565b50505050905090810190601f1680156102085780820380516001836020036101000a031916815260200191505b50848103835289818151815260200191508051906020019080838360005b83811015610241578082015181840152602081019050610226565b50505050905090810190601f16801561026e5780820380516001836020036101000a031916815260200191505b50848103825288818151815260200191508051906020019080838360005b838110156102a757808201518184015260208101905061028c565b50505050905090810190601f1680156102d45780820380516001836020036101000a031916815260200191505b509b50505050505050505050505060405180910390f35b3480156102f757600080fd5b50610509600480360360a081101561030e57600080fd5b810190808035906020019064010000000081111561032b57600080fd5b82018360208201111561033d57600080fd5b8035906020019184600183028401116401000000008311171561035f57600080fd5b91908080601f016020809104026020016040519081016040528093929190818152602001838380828437600081840152601f19601f82011690508083019250505050505050919291929080359060200190929190803590602001906401000000008111156103cc57600080fd5b8201836020820111156103de57600080fd5b8035906020019184600183028401116401000000008311171561040057600080fd5b91908080601f016020809104026020016040519081016040528093929190818152602001838380828437600081840152601f19601f8201169050808301925050505050505091929192908035906020019064010000000081111561046357600080fd5b82018360208201111561047557600080fd5b8035906020019184600183028401116401000000008311171561049757600080fd5b91908080601f016020809104026020016040519081016040528093929190818152602001838380828437600081840152601f19601f820116905080830192505050505050509192919290803573ffffffffffffffffffffffffffffffffffffffff1690602001909291905050506107f7565b005b34801561051757600080fd5b50610520610e15565b604051808273ffffffffffffffffffffffffffffffffffffffff1673ffffffffffffffffffffffffffffffffffffffff16815260200191505060405180910390f35b6105986004803603604081101561057857600080fd5b810190808035906020019092919080359060200190929190505050610e3a565b005b60025481565b6001602052806000526040600020600091509050806000018054600181600116156101000203166002900480601f01602080910402602001604051908101604052809291908181526020018280546001816001161561010002031660029004801561064c5780601f106106215761010080835404028352916020019161064c565b820191906000526020600020905b81548152906001019060200180831161062f57829003601f168201915b5050505050908060010160009054906101000a900473ffffffffffffffffffffffffffffffffffffffff1690806002015490806003018054600181600116156101000203166002900480601f0160208091040260200160405190810160405280929190818152602001828054600181600116156101000203166002900480156107165780601f106106eb57610100808354040283529160200191610716565b820191906000526020600020905b8154815290600101906020018083116106f957829003601f168201915b505050505090806004018054600181600116156101000203166002900480601f0160208091040260200160405190810160405280929190818152602001828054600181600116156101000203166002900480156107b45780601f10610789576101008083540402835291602001916107b4565b820191906000526020600020905b81548152906001019060200180831161079757829003601f168201915b5050505050908060050160009054906101000a900460f81b908060050160019054906101000a900460f81b908060050160029054906101000a900460ff16905088565b6000809054906101000a900473ffffffffffffffffffffffffffffffffffffffff1673ffffffffffffffffffffffffffffffffffffffff163373ffffffffffffffffffffffffffffffffffffffff16146108b9576040517f08c379a00000000000000000000000000000000000000000000000000000000081526004018080602001828103825260128152602001807f4e6f7420636f6e7472616374206f776e6572000000000000000000000000000081525060200191505060405180910390fd5b6000841161092f576040517f08c379a000000000000000000000000000000000000000000000000000000000815260040180806020018281038252601c8152602001807f5072696365206d7573742062652067726561746572207468616e20300000000081525060200191505060405180910390fd5b600073ffffffffffffffffffffffffffffffffffffffff168173ffffffffffffffffffffffffffffffffffffffff1614156109d2576040517f08c379a000000000000000000000000000000000000000000000000000000000815260040180806020018281038252601b8152602001807f496e697469616c206f776e6572206d7573742062652076616c6964000000000081525060200191505060405180910390fd5b600042446002546040516020018084815260200183815260200182815260200193505050506040516020818303038152906040528051906020012060001c90506000610a1d826113c4565b90506000610a2d600184016113c4565b905060008060028581610a3c57fe5b0614610a49576001610a4c565b60005b90506002600081548092919060010191905055506040518061010001604052808a81526020018673ffffffffffffffffffffffffffffffffffffffff168152602001898152602001888152602001878152602001847effffffffffffffffffffffffffffffffffffffffffffffffffffffffffffff19168152602001837effffffffffffffffffffffffffffffffffffffffffffffffffffffffffffff19168152602001826001811115610afc57fe5b8152506001600060025481526020019081526020016000206000820151816000019080519060200190610b30929190611529565b5060208201518160010160006101000a81548173ffffffffffffffffffffffffffffffffffffffff021916908373ffffffffffffffffffffffffffffffffffffffff160217905550604082015181600201556060820151816003019080519060200190610b9e929190611529565b506080820151816004019080519060200190610bbb929190611529565b5060a08201518160050160006101000a81548160ff021916908360f81c021790555060c08201518160050160016101000a81548160ff021916908360f81c021790555060e08201518160050160026101000a81548160ff02191690836001811115610c2257fe5b02179055509050508473ffffffffffffffffffffffffffffffffffffffff167ffe25ae267a7a33fd2878c9afda482e91b1f05279b434ec1ef65012fb34aed44e6002548b8b8b868989604051808881526020018060200187815260200180602001866001811115610c8f57fe5b60ff168152602001857effffffffffffffffffffffffffffffffffffffffffffffffffffffffffffff19167effffffffffffffffffffffffffffffffffffffffffffffffffffffffffffff19168152602001847effffffffffffffffffffffffffffffffffffffffffffffffffffffffffffff19167effffffffffffffffffffffffffffffffffffffffffffffffffffffffffffff19168152602001838103835289818151815260200191508051906020019080838360005b83811015610d63578082015181840152602081019050610d48565b50505050905090810190601f168015610d905780820380516001836020036101000a031916815260200191505b50838103825287818151815260200191508051906020019080838360005b83811015610dc9578082015181840152602081019050610dae565b50505050905090810190601f168015610df65780820380516001836020036101000a031916815260200191505b50995050505050505050505060405180910390a2505050505050505050565b6000809054906101000a900473ffffffffffffffffffffffffffffffffffffffff1681565b600082118015610e4c57506002548211155b610ebe576040517f08c379a000000000000000000000000000000000000000000000000000000000815260040180806020018281038252600e8152602001807f496e76616c6964204e465420494400000000000000000000000000000000000081525060200191505060405180910390fd5b60006001600084815260200190815260200160002090508060010160009054906101000a900473ffffffffffffffffffffffffffffffffffffffff1673ffffffffffffffffffffffffffffffffffffffff163373ffffffffffffffffffffffffffffffffffffffff161415610f9b576040517f08c379a00000000000000000000000000000000000000000000000000000000081526004018080602001828103825260188152602001807f596f7520616c7265616479206f776e2074686973204e4654000000000000000081525060200191505060405180910390fd5b8060020154341015611015576040517f08c379a00000000000000000000000000000000000000000000000000000000081526004018080602001828103825260148152602001807f496e73756666696369656e74207061796d656e7400000000000000000000000081525060200191505060405180910390fd5b60006110558260050160009054906101000a900460f81b8360050160019054906101000a900460f81b8460050160029054906101000a900460ff16611448565b90508083146110cc576040517f08c379a00000000000000000000000000000000000000000000000000000000081526004018080602001828103825260188152602001807f496e636f7272656374206269747769736520726573756c74000000000000000081525060200191505060405180910390fd5b60008260010160009054906101000a900473ffffffffffffffffffffffffffffffffffffffff1690508073ffffffffffffffffffffffffffffffffffffffff166108fc349081150290604051600060405180830381858888f1935050505015801561113b573d6000803e3d6000fd5b50338360010160006101000a81548173ffffffffffffffffffffffffffffffffffffffff021916908373ffffffffffffffffffffffffffffffffffffffff160217905550600042448733604051602001808581526020018481526020018381526020018273ffffffffffffffffffffffffffffffffffffffff1673ffffffffffffffffffffffffffffffffffffffff1660601b81526014019450505050506040516020818303038152906040528051906020012060001c90506111fd816113c4565b8460050160006101000a81548160ff021916908360f81c0217905550611225600182016113c4565b8460050160016101000a81548160ff021916908360f81c021790555060006002828161124d57fe5b061461125a57600161125d565b60005b8460050160026101000a81548160ff0219169083600181111561127c57fe5b02179055503373ffffffffffffffffffffffffffffffffffffffff167f59680400abf39e7257d84b63f0e7867eddb20df4ea551690b3172754b4444b598786600201548760050160029054906101000a900460ff168860050160009054906101000a900460f81b8960050160019054906101000a900460f81b6040518086815260200185815260200184600181111561131157fe5b60ff168152602001837effffffffffffffffffffffffffffffffffffffffffffffffffffffffffffff19167effffffffffffffffffffffffffffffffffffffffffffffffffffffffffffff19168152602001827effffffffffffffffffffffffffffffffffffffffffffffffffffffffffffff19167effffffffffffffffffffffffffffffffffffffffffffffffffffffffffffff191681526020019550505050505060405180910390a2505050505050565b6000806000905060008090505b600881101561143b5760016002858360405160200180838152602001828152602001925050506040516020818303038152906040528051906020012060001c8161141757fe5b0660ff16141561142e57806007036001901b821791505b80806001019150506113d1565b508060f81b915050919050565b6000808460f81c60ff16905060008460f81c60ff1690506000600181111561146c57fe5b84600181111561147857fe5b141561148a5780821692505050611522565b60018081111561149657fe5b8460018111156114a257fe5b14156114b45780821792505050611522565b6040517f08c379a00000000000000000000000000000000000000000000000000000000081526004018080602001828103825260158152602001807f556e737570706f72746564206f7065726174696f6e000000000000000000000081525060200191505060405180910390fd5b9392505050565b828054600181600116156101000203166002900490600052602060002090601f016020900481019282601f1061156a57805160ff1916838001178555611598565b82800160010185558215611598579182015b8281111561159757825182559160200191906001019061157c565b5b5090506115a591906115a9565b5090565b6115cb91905b808211156115c75760008160009055506001016115af565b5090565b9056fea265627a7a72315820bce24229259c93fabd84ab87f2d541edfac137e8cc5aeb034756965586a8815864736f6c63430005100032",
  "source": "// SPDX-License-Identifier: MIT\npragma solidity ^0.5.0;\n\ncontract NFTBitwiseShop {\n    address public owner;\n\n    enum Op { AND, OR }\n\n    struct NFT {\n        string name;\n        address owner;\n        uint price;\n        string image;\n        string artist;\n        bytes1 byteA;\n        bytes1 byteB;\n        Op op;\n    }\n\n    mapping(uint => NFT) public nfts;\n    uint public nftCount = 0;\n\n    event NFTCreated(\n        uint id,\n        string name,\n        address indexed initialOwner,\n        uint price,\n        string image,\n        Op op,\n        bytes1 byteA,\n        bytes1 byteB\n    );\n\n    event NFTPurchased(\n        uint id,\n        address indexed buyer,\n        uint price,\n        Op op,\n        bytes1 byteA,\n        bytes1 byteB\n    );\n\n    modifier onlyOwner() {\n        require(msg.sender == owner, \"Not contract owner\");\n        _;\n    }\n\n    constructor() public {\n        owner = msg.sender;\n    }\n\n    function createNFT(\n        string memory _name,\n        uint _price,\n        string memory _image,\n        string memory _artist,\n        address _initialOwner\n    )\n        public\n        onlyOwner\n    {\n        require(_price > 0, \"Price must be greater than 0\");\n        require(_initialOwner != address(0), \"Initial owner must be valid\");\n\n        uint seed = uint(keccak256(abi.encodePacked(block.timestamp, block.difficulty, nftCount)));\n        bytes1 byteA = generateRandomByte(seed);\n        bytes1 byteB = generateRandomByte(seed + 1);\n        Op op = (seed % 2 == 0) ? Op.AND : Op.OR;\n\n        nftCount++;\n        nfts[nftCount] = NFT(\n            _name,\n            _initialOwner,\n            _price,\n            _image,\n            _artist,\n            byteA,\n            byteB,\n            op\n        );\n\n        emit NFTCreated(nftCount, _name, _initialOwner, _price, _image, op, byteA, byteB);\n    }\n\n    function purchaseNFT(uint _id, uint _result) public payable {\n        require(_id > 0 && _id <= nftCount, \"Invalid NFT ID\");\n\n        NFT storage nft = nfts[_id];\n        require(msg.sender != nft.owner, \"You already own this NFT\");\n        require(msg.value >= nft.price, \"Insufficient payment\");\n\n        uint computed = computeBitwiseResult(nft.byteA, nft.byteB, nft.op);\n        require(_result == computed, \"Incorrect bitwise result\");\n\n        address payable seller = address(uint160(nft.owner));\n        seller.transfer(msg.value);\n\n        nft.owner = msg.sender;\n\n        uint seed = uint(keccak256(abi.encodePacked(block.timestamp, block.difficulty, _id, msg.sender)));\n        nft.byteA = generateRandomByte(seed);\n        nft.byteB = generateRandomByte(seed + 1);\n        nft.op = (seed % 2 == 0) ? Op.AND : Op.OR;\n\n        emit NFTPurchased(_id, msg.sender, nft.price, nft.op, nft.byteA, nft.byteB);\n    }\n\n    function computeBitwiseResult(bytes1 a, bytes1 b, Op op) internal pure returns (uint) {\n        uint ua = uint8(a);\n        uint ub = uint8(b);\n\n        if (op == Op.AND) {\n            return ua & ub;\n        } else if (op == Op.OR) {\n            return ua | ub;\n        } else {\n            revert(\"Unsupported operation\");\n        }\n    }\n\n    function generateRandomByte(uint seed) internal pure returns (bytes1) {\n        uint8 value = 0;\n        for (uint i = 0; i < 8; i++) {\n            if ((uint8(uint(keccak256(abi.encodePacked(seed, i))) % 2)) == 1) {\n                value |= uint8(1 << (7 - i));\n            }\n        }\n        return bytes1(value);\n    }\n}\n",
  "sourcePath": "/home/dvd/Desktop/projects_dapps/nft-project/contracts/NFTBitwiseShop.sol",
  "compiler": {
    "name": "solc",
    "version": "0.5.16+commit.9c3226ce.Emscripten.clang"
  },
  "schemaVersion": "3.4.16",
  "updatedAt": "2025-07-22T05:21:33.736Z",
  "networkType": "ethereum",
  "devdoc": {
    "methods": {}
  },
  "userdoc": {
    "methods": {}
  }
}